{
  "contractName": "NewrlToken",
  "abi": [
    {
      "inputs": [],
      "stateMutability": "nonpayable",
      "type": "constructor"
    },
    {
      "anonymous": false,
      "inputs": [
        {
          "indexed": true,
          "internalType": "address",
          "name": "owner",
          "type": "address"
        },
        {
          "indexed": true,
          "internalType": "address",
          "name": "spender",
          "type": "address"
        },
        {
          "indexed": false,
          "internalType": "uint256",
          "name": "value",
          "type": "uint256"
        }
      ],
      "name": "Approval",
      "type": "event"
    },
    {
      "anonymous": false,
      "inputs": [
        {
          "indexed": true,
          "internalType": "address",
          "name": "from",
          "type": "address"
        },
        {
          "indexed": true,
          "internalType": "address",
          "name": "to",
          "type": "address"
        },
        {
          "indexed": false,
          "internalType": "uint256",
          "name": "value",
          "type": "uint256"
        }
      ],
      "name": "Transfer",
      "type": "event"
    },
    {
      "inputs": [
        {
          "internalType": "address",
          "name": "",
          "type": "address"
        },
        {
          "internalType": "address",
          "name": "",
          "type": "address"
        }
      ],
      "name": "allowed",
      "outputs": [
        {
          "internalType": "uint256",
          "name": "",
          "type": "uint256"
        }
      ],
      "stateMutability": "view",
      "type": "function",
      "constant": true
    },
    {
      "inputs": [
        {
          "internalType": "address",
          "name": "",
          "type": "address"
        }
      ],
      "name": "balances",
      "outputs": [
        {
          "internalType": "uint256",
          "name": "",
          "type": "uint256"
        }
      ],
      "stateMutability": "view",
      "type": "function",
      "constant": true
    },
    {
      "inputs": [],
      "name": "decimals",
      "outputs": [
        {
          "internalType": "uint8",
          "name": "",
          "type": "uint8"
        }
      ],
      "stateMutability": "view",
      "type": "function",
      "constant": true
    },
    {
      "inputs": [],
      "name": "name",
      "outputs": [
        {
          "internalType": "string",
          "name": "",
          "type": "string"
        }
      ],
      "stateMutability": "view",
      "type": "function",
      "constant": true
    },
    {
      "inputs": [],
      "name": "symbol",
      "outputs": [
        {
          "internalType": "string",
          "name": "",
          "type": "string"
        }
      ],
      "stateMutability": "view",
      "type": "function",
      "constant": true
    },
    {
      "inputs": [],
      "name": "totSupply",
      "outputs": [
        {
          "internalType": "uint256",
          "name": "",
          "type": "uint256"
        }
      ],
      "stateMutability": "view",
      "type": "function",
      "constant": true
    },
    {
      "inputs": [
        {
          "internalType": "address",
          "name": "_to",
          "type": "address"
        },
        {
          "internalType": "uint256",
          "name": "_value",
          "type": "uint256"
        }
      ],
      "name": "transfer",
      "outputs": [
        {
          "internalType": "bool",
          "name": "success",
          "type": "bool"
        }
      ],
      "stateMutability": "nonpayable",
      "type": "function"
    },
    {
      "inputs": [
        {
          "internalType": "address",
          "name": "_from",
          "type": "address"
        },
        {
          "internalType": "address",
          "name": "_to",
          "type": "address"
        },
        {
          "internalType": "uint256",
          "name": "_value",
          "type": "uint256"
        }
      ],
      "name": "transferFrom",
      "outputs": [
        {
          "internalType": "bool",
          "name": "success",
          "type": "bool"
        }
      ],
      "stateMutability": "nonpayable",
      "type": "function"
    },
    {
      "inputs": [],
      "name": "totalSupply",
      "outputs": [
        {
          "internalType": "uint256",
          "name": "totSupp",
          "type": "uint256"
        }
      ],
      "stateMutability": "view",
      "type": "function",
      "constant": true
    },
    {
      "inputs": [
        {
          "internalType": "address",
          "name": "_owner",
          "type": "address"
        }
      ],
      "name": "balanceOf",
      "outputs": [
        {
          "internalType": "uint256",
          "name": "balance",
          "type": "uint256"
        }
      ],
      "stateMutability": "view",
      "type": "function",
      "constant": true
    },
    {
      "inputs": [
        {
          "internalType": "address",
          "name": "_spender",
          "type": "address"
        },
        {
          "internalType": "uint256",
          "name": "_value",
          "type": "uint256"
        }
      ],
      "name": "approve",
      "outputs": [
        {
          "internalType": "bool",
          "name": "success",
          "type": "bool"
        }
      ],
      "stateMutability": "nonpayable",
      "type": "function"
    },
    {
      "inputs": [
        {
          "internalType": "address",
          "name": "_owner",
          "type": "address"
        },
        {
          "internalType": "address",
          "name": "_spender",
          "type": "address"
        }
      ],
      "name": "allowance",
      "outputs": [
        {
          "internalType": "uint256",
          "name": "remaining",
          "type": "uint256"
        }
      ],
      "stateMutability": "view",
      "type": "function",
      "constant": true
    }
  ],
  "bytecode": "0x60806040523480156200001157600080fd5b50655af3107a40006002819055506002546000803373ffffffffffffffffffffffffffffffffffffffff1673ffffffffffffffffffffffffffffffffffffffff168152602001908152602001600020819055506040518060400160405280600a81526020017f4e6577726c546f6b656e0000000000000000000000000000000000000000000081525060039080519060200190620000b192919062000122565b506001600460006101000a81548160ff021916908360ff1602179055506040518060400160405280600381526020017f4e57540000000000000000000000000000000000000000000000000000000000815250600590805190602001906200011b92919062000122565b5062000237565b828054620001309062000201565b90600052602060002090601f016020900481019282620001545760008555620001a0565b82601f106200016f57805160ff1916838001178555620001a0565b82800160010185558215620001a0579182015b828111156200019f57825182559160200191906001019062000182565b5b509050620001af9190620001b3565b5090565b5b80821115620001ce576000816000905550600101620001b4565b5090565b7f4e487b7100000000000000000000000000000000000000000000000000000000600052602260045260246000fd5b600060028204905060018216806200021a57607f821691505b60208210811415620002315762000230620001d2565b5b50919050565b610f7180620002476000396000f3fe608060405234801561001057600080fd5b50600436106100b45760003560e01c80635c658165116100715780635c658165146101a357806370a08231146101d357806381fbf0a51461020357806395d89b4114610221578063a9059cbb1461023f578063dd62ed3e1461026f576100b4565b806306fdde03146100b9578063095ea7b3146100d757806318160ddd1461010757806323b872dd1461012557806327e235e314610155578063313ce56714610185575b600080fd5b6100c161029f565b6040516100ce9190610af7565b60405180910390f35b6100f160048036038101906100ec9190610bb2565b61032d565b6040516100fe9190610c0d565b60405180910390f35b61010f61041f565b60405161011c9190610c37565b60405180910390f35b61013f600480360381019061013a9190610c52565b610429565b60405161014c9190610c0d565b60405180910390f35b61016f600480360381019061016a9190610ca5565b61070f565b60405161017c9190610c37565b60405180910390f35b61018d610727565b60405161019a9190610cee565b60405180910390f35b6101bd60048036038101906101b89190610d09565b61073a565b6040516101ca9190610c37565b60405180910390f35b6101ed60048036038101906101e89190610ca5565b61075f565b6040516101fa9190610c37565b60405180910390f35b61020b6107a7565b6040516102189190610c37565b60405180910390f35b6102296107ad565b6040516102369190610af7565b60405180910390f35b61025960048036038101906102549190610bb2565b61083b565b6040516102669190610c0d565b60405180910390f35b61028960048036038101906102849190610d09565b6109d7565b6040516102969190610c37565b60405180910390f35b600380546102ac90610d78565b80601f01602080910402602001604051908101604052809291908181526020018280546102d890610d78565b80156103255780601f106102fa57610100808354040283529160200191610325565b820191906000526020600020905b81548152906001019060200180831161030857829003601f168201915b505050505081565b600081600160003373ffffffffffffffffffffffffffffffffffffffff1673ffffffffffffffffffffffffffffffffffffffff16815260200190815260200160002060008573ffffffffffffffffffffffffffffffffffffffff1673ffffffffffffffffffffffffffffffffffffffff168152602001908152602001600020819055508273ffffffffffffffffffffffffffffffffffffffff163373ffffffffffffffffffffffffffffffffffffffff167f8c5be1e5ebec7d5bd14f71427d1e84f3dd0314c0f7b2291e5b200ac8c7c3b9258460405161040d9190610c37565b60405180910390a36001905092915050565b6000600254905090565b600080600160008673ffffffffffffffffffffffffffffffffffffffff1673ffffffffffffffffffffffffffffffffffffffff16815260200190815260200160002060003373ffffffffffffffffffffffffffffffffffffffff1673ffffffffffffffffffffffffffffffffffffffff168152602001908152602001600020549050826000808773ffffffffffffffffffffffffffffffffffffffff1673ffffffffffffffffffffffffffffffffffffffff16815260200190815260200160002054101580156104f95750828110155b610538576040517f08c379a000000000000000000000000000000000000000000000000000000000815260040161052f90610df6565b60405180910390fd5b826000808673ffffffffffffffffffffffffffffffffffffffff1673ffffffffffffffffffffffffffffffffffffffff16815260200190815260200160002060008282546105869190610e45565b92505081905550826000808773ffffffffffffffffffffffffffffffffffffffff1673ffffffffffffffffffffffffffffffffffffffff16815260200190815260200160002060008282546105db9190610e9b565b925050819055507fffffffffffffffffffffffffffffffffffffffffffffffffffffffffffffffff81101561069e5782600160008773ffffffffffffffffffffffffffffffffffffffff1673ffffffffffffffffffffffffffffffffffffffff16815260200190815260200160002060003373ffffffffffffffffffffffffffffffffffffffff1673ffffffffffffffffffffffffffffffffffffffff16815260200190815260200160002060008282546106969190610e9b565b925050819055505b8373ffffffffffffffffffffffffffffffffffffffff168573ffffffffffffffffffffffffffffffffffffffff167fddf252ad1be2c89b69c2b068fc378daa952ba7f163c4a11628f55a4df523b3ef856040516106fb9190610c37565b60405180910390a360019150509392505050565b60006020528060005260406000206000915090505481565b600460009054906101000a900460ff1681565b6001602052816000526040600020602052806000526040600020600091509150505481565b60008060008373ffffffffffffffffffffffffffffffffffffffff1673ffffffffffffffffffffffffffffffffffffffff168152602001908152602001600020549050919050565b60025481565b600580546107ba90610d78565b80601f01602080910402602001604051908101604052809291908181526020018280546107e690610d78565b80156108335780601f1061080857610100808354040283529160200191610833565b820191906000526020600020905b81548152906001019060200180831161081657829003601f168201915b505050505081565b6000816000803373ffffffffffffffffffffffffffffffffffffffff1673ffffffffffffffffffffffffffffffffffffffff1681526020019081526020016000205410156108be576040517f08c379a00000000000000000000000000000000000000000000000000000000081526004016108b590610f1b565b60405180910390fd5b816000803373ffffffffffffffffffffffffffffffffffffffff1673ffffffffffffffffffffffffffffffffffffffff168152602001908152602001600020600082825461090c9190610e9b565b92505081905550816000808573ffffffffffffffffffffffffffffffffffffffff1673ffffffffffffffffffffffffffffffffffffffff16815260200190815260200160002060008282546109619190610e45565b925050819055508273ffffffffffffffffffffffffffffffffffffffff163373ffffffffffffffffffffffffffffffffffffffff167fddf252ad1be2c89b69c2b068fc378daa952ba7f163c4a11628f55a4df523b3ef846040516109c59190610c37565b60405180910390a36001905092915050565b6000600160008473ffffffffffffffffffffffffffffffffffffffff1673ffffffffffffffffffffffffffffffffffffffff16815260200190815260200160002060008373ffffffffffffffffffffffffffffffffffffffff1673ffffffffffffffffffffffffffffffffffffffff16815260200190815260200160002054905092915050565b600081519050919050565b600082825260208201905092915050565b60005b83811015610a98578082015181840152602081019050610a7d565b83811115610aa7576000848401525b50505050565b6000601f19601f8301169050919050565b6000610ac982610a5e565b610ad38185610a69565b9350610ae3818560208601610a7a565b610aec81610aad565b840191505092915050565b60006020820190508181036000830152610b118184610abe565b905092915050565b600080fd5b600073ffffffffffffffffffffffffffffffffffffffff82169050919050565b6000610b4982610b1e565b9050919050565b610b5981610b3e565b8114610b6457600080fd5b50565b600081359050610b7681610b50565b92915050565b6000819050919050565b610b8f81610b7c565b8114610b9a57600080fd5b50565b600081359050610bac81610b86565b92915050565b60008060408385031215610bc957610bc8610b19565b5b6000610bd785828601610b67565b9250506020610be885828601610b9d565b9150509250929050565b60008115159050919050565b610c0781610bf2565b82525050565b6000602082019050610c226000830184610bfe565b92915050565b610c3181610b7c565b82525050565b6000602082019050610c4c6000830184610c28565b92915050565b600080600060608486031215610c6b57610c6a610b19565b5b6000610c7986828701610b67565b9350506020610c8a86828701610b67565b9250506040610c9b86828701610b9d565b9150509250925092565b600060208284031215610cbb57610cba610b19565b5b6000610cc984828501610b67565b91505092915050565b600060ff82169050919050565b610ce881610cd2565b82525050565b6000602082019050610d036000830184610cdf565b92915050565b60008060408385031215610d2057610d1f610b19565b5b6000610d2e85828601610b67565b9250506020610d3f85828601610b67565b9150509250929050565b7f4e487b7100000000000000000000000000000000000000000000000000000000600052602260045260246000fd5b60006002820490506001821680610d9057607f821691505b60208210811415610da457610da3610d49565b5b50919050565b7f46756e6473206e6f7420616c6c6f776564000000000000000000000000000000600082015250565b6000610de0601183610a69565b9150610deb82610daa565b602082019050919050565b60006020820190508181036000830152610e0f81610dd3565b9050919050565b7f4e487b7100000000000000000000000000000000000000000000000000000000600052601160045260246000fd5b6000610e5082610b7c565b9150610e5b83610b7c565b9250827fffffffffffffffffffffffffffffffffffffffffffffffffffffffffffffffff03821115610e9057610e8f610e16565b5b828201905092915050565b6000610ea682610b7c565b9150610eb183610b7c565b925082821015610ec457610ec3610e16565b5b828203905092915050565b7f4e6f2066756e647320617661696c61626c650000000000000000000000000000600082015250565b6000610f05601283610a69565b9150610f1082610ecf565b602082019050919050565b60006020820190508181036000830152610f3481610ef8565b905091905056fea26469706673582212201c4e8d4898d377b4fc1b3a62ec2416787496585eccf326665f40de2388b8a1df64736f6c634300080a0033",
  "immutableReferences": {},
  "source": "// SPDX-License-Identifier: MIT\npragma solidity ^0.8.10;\n\ncontract NewrlToken {\n    uint256 private constant MAX_UINT256 = 2**256 - 1;\n    mapping(address => uint256) public balances;\n    mapping(address => mapping(address => uint256)) public allowed;\n\n    uint256 public totSupply;\n    string public name;\n    uint8 public decimals;\n    string public symbol;\n\n    event Transfer(address indexed from, address indexed to, uint256 value);\n    event Approval(\n        address indexed owner,\n        address indexed spender,\n        uint256 value\n    );\n\n    constructor() {\n        totSupply = 100000000000000;\n        balances[msg.sender] = totSupply;\n        name = \"NewrlToken\";\n        decimals = 1;\n        symbol = \"NWT\";\n    }\n\n    function transfer(address _to, uint256 _value)\n        public\n        returns (bool success)\n    {\n        require(balances[msg.sender] >= _value, \"No funds available\");\n        balances[msg.sender] -= _value;\n        balances[_to] += _value;\n        emit Transfer(msg.sender, _to, _value);\n        return true;\n    }\n\n    function transferFrom(\n        address _from,\n        address _to,\n        uint256 _value\n    ) public returns (bool success) {\n        uint256 allowanceAllowed = allowed[_from][msg.sender];\n        require(\n            balances[_from] >= _value && allowanceAllowed >= _value,\n            \"Funds not allowed\"\n        );\n        balances[_to] += _value;\n        balances[_from] -= _value;\n        if (allowanceAllowed < MAX_UINT256) {\n            allowed[_from][msg.sender] -= _value;\n        }\n        emit Transfer(_from, _to, _value);\n        return true;\n    }\n\n    function totalSupply() public view returns (uint256 totSupp) {\n        return totSupply;\n    }\n\n    function balanceOf(address _owner) public view returns (uint256 balance) {\n        return balances[_owner];\n    }\n\n    function approve(address _spender, uint256 _value)\n        public\n        returns (bool success)\n    {\n        allowed[msg.sender][_spender] = _value;\n        emit Approval(msg.sender, _spender, _value);\n        return true;\n    }\n\n    function allowance(address _owner, address _spender)\n        public\n        view\n        returns (uint256 remaining)\n    {\n        return allowed[_owner][_spender];\n    }\n}",
  "sourcePath": "/Users/Srikar/Documents/Coding/Projects/P2P Loans/CryptoToken/contracts/NewrlToken.sol",
  "compiler": {
    "name": "solc",
    "version": "0.8.10+commit.fc410830.Emscripten.clang"
  },
  "schemaVersion": "3.4.4",
  "updatedAt": "2022-01-09T00:57:26.624Z",
  "networkType": "ethereum",
  "devdoc": {
    "kind": "dev",
    "methods": {},
    "version": 1
  },
  "userdoc": {
    "kind": "user",
    "methods": {},
    "version": 1
  }
}